:10000000112480914000811105C098ED21E094BF3A
:100010002093410083FD02C0843020F4809340008F
:100020008CBBEEC088E0C2D0209A289A1092E205DC
:1000300082E896E0809368089093690883E0809353
:10004000670880EC80936608079A87E08150A9F4DE
:10005000A895E12C40E4F42E9DD08134D1F49AD0BF
:10006000C82FADD081E0C23821F089E1C13809F054
:1000700083E089D080E187D0EFCF179A2AE238E673
:10008000A8959091640897FDE4CF21503109C1F7FC
:10009000DDCF823419F484E19AD0ECCF853411F4A9
:1000A00085E0FACF853531F475D0082F73D0182F3D
:1000B00086D0E0CF863561F46DD08D3439F46AD0C6
:1000C00069D08BBF81E083D080E0D3CF83E0FBCFCA
:1000D000843649F55FD0C82FD0E0DC2FCC275AD02A
:1000E000C82B6E01D694C79455D0D05C812C30E4D7
:1000F000932E54018FEFA81AB80A4CD0D4018C93D8
:100100004501AC16BD06A9F75AD0F801D70188E021
:1001100065D0E89582E062D00D901D90F895CA9464
:10012000D9F71124A7CF8437F1F434D0C82FD0E009
:10013000DC2FCC272FD0C82B2DD0D82E40D0B6E422
:10014000DB1208C06801F60187916F011CD021976E
:10015000D1F790CF1C5EF80180810F5F1F4F13D045
:100160002197C9F787CF853741F429D08EE10BD08D
:1001700087E909D0809102117CCF813509F098CFB1
:1001800081E014D095CF9091640895FFFCCF8093C7
:10019000620808958091640887FFFCCF9091610800
:1001A0008091600892FD01C0A89508959091010189
:1001B00090FDFCCF98ED94BF809300010895EADF95
:1001C000803219F081E0F2DFFFCF84E1DCCFCF9302
:1001D000C82FE0DFC150E9F7CF91F1CF9DE994BF7F
:0C01E0001092001094BF8093001008954E
:0401FA00F8950895D7
:0201FE000119E5
:00000001FF
